:0410000056EF3EF079
:107C2B00A1A1A1A1A1016E01C0C9FF9EA6FED79E75
:107C3B0096C95012008996FF0E18EC3EF0026E8921
:107C4B0086025012000F0EC16E9294929693848905
:107C5B008689940F0C026E8996270E18EC3EF00263
:107C6B005018EC3EF089861200026E89960250186D
:107C7B00EC3EF0000E18EC3EF0036E8986035012BA
:107C8B0000016E93929380949EC650F00B0110C628
:107C9B006EC698C78CC78E9D969F969E96C68A1267
:107CAB00002B0EF66E7C0EF76E000EF86E00EE28B3
:107CBB00F010EE05F00900F5CFEEFFE550E150FABC
:107CCB00E1000139EF3FF08996E10E18EC3EF089A7
:107CDB0086040EE82EFED78996E20E18EC3EF0894C
:107CEB0086400E30EC3EF0200E30EC3EF0100E30A5
:107CFB00EF3EF0056E13D818EC3EF0045018EC3E36
:107D0B00F006D00CD818EC3EF0045018EC3EF0897D
:107D1B008605503AEC3EF00418F4E1120089960502
:107D2B0050200F1200096E8996025018EC3EF00A93
:107D3B006A09D003500A24D96EDA6A000E18EC3E99
:107D4B00F0DF6E0A2A0950046E056A020E04260043
:107D5B000E05220A50066E076A0450065C07508017
:107D6B000A086E0550800A0858E4E3898612001E43
:107D7B006E100E1ED8BBEC3FF00A0E1AD8BBEC3FB0
:107D8B00F01CC002F01DC003F01E50E3EC3EF08966
:107D9B0084DE0E00D000D0E82EFCD700D000D0003F
:107DAB00D0280EE82EFED78994100EE82EFED7129F
:107DBB00000B6E1BC00CF01A501200056E8996A0BA
:107DCB000E18EC3EF005500AE1066A04D01AD818DA
:107DDB00EC3EF0062A0250065C12E2F8D705500F73
:107DEB00E0046A066A06D00DD818EC3EF00AD804F7
:107DFB0026062A0250065CF7E3045018EC3EF08985
:107E0B0086120003500624D96EDA6ADF5012000680
:107E1B006A076A086A0ED0064A072A4D0E0618052D
:107E2B00E1070403E1066A076A082A070E0818012E
:107E3B00E117D081B4F0D714D020EC3EF0096E09D5
:107E4B00A807D0080E3AEC3EF0100E30EC3EF008CE
:107E5B00D009AA06D0080E3AEC3EF0200E30EC3ECC
:107E6B00F081B41200E9D720EE28F010EE21F004D7
:107E7B000EDBCFE3FFE806FCE2266AC290010E465A
:107E8B00EC3EF028EC3EF0010E066E076A030E087E
:107E9B006E010E096E0A6E0B6A0A0E0C6E0D6A01EC
:107EAB000E0E6E030E78EC3FF026C027F0030E1A71
:107EBB006E210E1B6E010E1C6E270E1D6E000EBD6D
:107ECB00EC3EF00DEC3FF0010E261A1F0E206E71EA
:107EDB000E1F6E1E0EE82EFED71F2EFCD7202EFA7D
:107EEB00D700D0E2D7106E899469EC3EF03F0E04B8
:107EFB006E010E7FEC3EF03F0E046E020E7FEC3EE9
:107F0B00F010C004F0030E7FEC3EF00B50100DF39D
:107F1B00500C24046E040E7FEC3EF006C004F005FA
:107F2B000E7FEC3EF00850020DF3CF0FF007500818
:107F3B000DF3500F240924046E060E7FEC3EF00E59
:107F4B00500D24046E110E7FEC3EF00A50040DF31D
:107F5B00500A0F046E000E7FEC3EF0200E0F6E2ABF
:107F6B000EE82EFED70F2EFCD71200186E176A2CB8
:107F7B00D089960B50200F18EC3EF0196A08D00CE4
:107F8B00501924D96EDA6ADF5018EC3EF0192A1F0B
:107F9B00D8F6E389860BC002F0120E036E185098C8
:107FAB00EC3EF0010E176E196A0DD01950120FD955
:107FBB006EDA6A0C501924E16EE26ADE50E61801A3
:107FCB00E0176A192A04D8F1E31750D2E01200180F
:107FDB00500D6E0E6A020E0D26000E0E2219500F5A
:107FEB006E106A0D500F5C1050800A116E0E50808F
:057FFB000A11581200FC
:020000040020DA
:08000000FFFFFFFFFFFFFFFF00
:020000040030CA
:0E000000240E391EFF8181FF0FC00FE00F405C
:00000001FF
